{
  "contractName": "StorageContract",
  "abi": [
    {
      "inputs": [
        {
          "internalType": "uint256",
          "name": "",
          "type": "uint256"
        }
      ],
      "name": "contractAddresses",
      "outputs": [
        {
          "internalType": "address",
          "name": "",
          "type": "address"
        }
      ],
      "stateMutability": "view",
      "type": "function"
    },
    {
      "inputs": [
        {
          "internalType": "address",
          "name": "_contractAddress",
          "type": "address"
        }
      ],
      "name": "storeContractAddress",
      "outputs": [],
      "stateMutability": "nonpayable",
      "type": "function"
    },
    {
      "inputs": [],
      "name": "getContractAddresses",
      "outputs": [
        {
          "internalType": "address[]",
          "name": "",
          "type": "address[]"
        }
      ],
      "stateMutability": "view",
      "type": "function"
    }
  ],
  "bytecode": "0x608060405234801561001057600080fd5b50610416806100206000396000f3fe608060405234801561001057600080fd5b50600436106100415760003560e01c80633263b54514610046578063953874d214610076578063be08376614610094575b600080fd5b610060600480360381019061005b919061021e565b6100b0565b60405161006d919061028c565b60405180910390f35b61007e6100ef565b60405161008b9190610365565b60405180910390f35b6100ae60048036038101906100a991906103b3565b61017d565b005b600081815481106100c057600080fd5b906000526020600020016000915054906101000a900473ffffffffffffffffffffffffffffffffffffffff1681565b6060600080548060200260200160405190810160405280929190818152602001828054801561017357602002820191906000526020600020905b8160009054906101000a900473ffffffffffffffffffffffffffffffffffffffff1673ffffffffffffffffffffffffffffffffffffffff1681526020019060010190808311610129575b5050505050905090565b6000819080600181540180825580915050600190039060005260206000200160009091909190916101000a81548173ffffffffffffffffffffffffffffffffffffffff021916908373ffffffffffffffffffffffffffffffffffffffff16021790555050565b600080fd5b6000819050919050565b6101fb816101e8565b811461020657600080fd5b50565b600081359050610218816101f2565b92915050565b600060208284031215610234576102336101e3565b5b600061024284828501610209565b91505092915050565b600073ffffffffffffffffffffffffffffffffffffffff82169050919050565b60006102768261024b565b9050919050565b6102868161026b565b82525050565b60006020820190506102a1600083018461027d565b92915050565b600081519050919050565b600082825260208201905092915050565b6000819050602082019050919050565b6102dc8161026b565b82525050565b60006102ee83836102d3565b60208301905092915050565b6000602082019050919050565b6000610312826102a7565b61031c81856102b2565b9350610327836102c3565b8060005b8381101561035857815161033f88826102e2565b975061034a836102fa565b92505060018101905061032b565b5085935050505092915050565b6000602082019050818103600083015261037f8184610307565b905092915050565b6103908161026b565b811461039b57600080fd5b50565b6000813590506103ad81610387565b92915050565b6000602082840312156103c9576103c86101e3565b5b60006103d78482850161039e565b9150509291505056fea2646970667358221220014da406d71d8829f40cc633979f5defdebb0c7506a4172898f2e69dce8ccfb064736f6c63430008130033",
  "immutableReferences": {},
  "source": "// SPDX-License-Identifier: MIT\r\npragma solidity ^0.8.19;\r\ncontract StorageContract {\r\n    address[] public contractAddresses;\r\n\r\n    function storeContractAddress(address _contractAddress) public {\r\n        contractAddresses.push(_contractAddress);\r\n    }\r\n\r\n    function getContractAddresses() public view returns (address[] memory) {\r\n        return contractAddresses;\r\n    }\r\n}",
  "sourcePath": "D:\\Documents\\GitHub\\Paper\\contracts\\StorageContract.sol",
  "compiler": {
    "name": "solc",
    "version": "0.8.19+commit.7dd6d404.Emscripten.clang"
  },
  "schemaVersion": "3.4.16",
  "updatedAt": "2023-12-26T15:40:13.125Z",
  "networkType": "ethereum",
  "devdoc": {
    "kind": "dev",
    "methods": {},
    "version": 1
  },
  "userdoc": {
    "kind": "user",
    "methods": {},
    "version": 1
  }
}