{
  "contractName": "Receipt",
  "abi": [
    {
      "inputs": [
        {
          "internalType": "address",
          "name": "initialOwner",
          "type": "address"
        },
        {
          "internalType": "string",
          "name": "_productName",
          "type": "string"
        },
        {
          "internalType": "string",
          "name": "_productIdentifier",
          "type": "string"
        },
        {
          "internalType": "uint256",
          "name": "_warrantyDates",
          "type": "uint256"
        }
      ],
      "stateMutability": "nonpayable",
      "type": "constructor"
    },
    {
      "inputs": [],
      "name": "ERC721EnumerableForbiddenBatchMint",
      "type": "error"
    },
    {
      "inputs": [
        {
          "internalType": "address",
          "name": "sender",
          "type": "address"
        },
        {
          "internalType": "uint256",
          "name": "tokenId",
          "type": "uint256"
        },
        {
          "internalType": "address",
          "name": "owner",
          "type": "address"
        }
      ],
      "name": "ERC721IncorrectOwner",
      "type": "error"
    },
    {
      "inputs": [
        {
          "internalType": "address",
          "name": "operator",
          "type": "address"
        },
        {
          "internalType": "uint256",
          "name": "tokenId",
          "type": "uint256"
        }
      ],
      "name": "ERC721InsufficientApproval",
      "type": "error"
    },
    {
      "inputs": [
        {
          "internalType": "address",
          "name": "approver",
          "type": "address"
        }
      ],
      "name": "ERC721InvalidApprover",
      "type": "error"
    },
    {
      "inputs": [
        {
          "internalType": "address",
          "name": "operator",
          "type": "address"
        }
      ],
      "name": "ERC721InvalidOperator",
      "type": "error"
    },
    {
      "inputs": [
        {
          "internalType": "address",
          "name": "owner",
          "type": "address"
        }
      ],
      "name": "ERC721InvalidOwner",
      "type": "error"
    },
    {
      "inputs": [
        {
          "internalType": "address",
          "name": "receiver",
          "type": "address"
        }
      ],
      "name": "ERC721InvalidReceiver",
      "type": "error"
    },
    {
      "inputs": [
        {
          "internalType": "address",
          "name": "sender",
          "type": "address"
        }
      ],
      "name": "ERC721InvalidSender",
      "type": "error"
    },
    {
      "inputs": [
        {
          "internalType": "uint256",
          "name": "tokenId",
          "type": "uint256"
        }
      ],
      "name": "ERC721NonexistentToken",
      "type": "error"
    },
    {
      "inputs": [
        {
          "internalType": "address",
          "name": "owner",
          "type": "address"
        },
        {
          "internalType": "uint256",
          "name": "index",
          "type": "uint256"
        }
      ],
      "name": "ERC721OutOfBoundsIndex",
      "type": "error"
    },
    {
      "inputs": [
        {
          "internalType": "address",
          "name": "owner",
          "type": "address"
        }
      ],
      "name": "OwnableInvalidOwner",
      "type": "error"
    },
    {
      "inputs": [
        {
          "internalType": "address",
          "name": "account",
          "type": "address"
        }
      ],
      "name": "OwnableUnauthorizedAccount",
      "type": "error"
    },
    {
      "anonymous": false,
      "inputs": [
        {
          "indexed": true,
          "internalType": "address",
          "name": "owner",
          "type": "address"
        },
        {
          "indexed": true,
          "internalType": "address",
          "name": "approved",
          "type": "address"
        },
        {
          "indexed": true,
          "internalType": "uint256",
          "name": "tokenId",
          "type": "uint256"
        }
      ],
      "name": "Approval",
      "type": "event"
    },
    {
      "anonymous": false,
      "inputs": [
        {
          "indexed": true,
          "internalType": "address",
          "name": "owner",
          "type": "address"
        },
        {
          "indexed": true,
          "internalType": "address",
          "name": "operator",
          "type": "address"
        },
        {
          "indexed": false,
          "internalType": "bool",
          "name": "approved",
          "type": "bool"
        }
      ],
      "name": "ApprovalForAll",
      "type": "event"
    },
    {
      "anonymous": false,
      "inputs": [
        {
          "indexed": true,
          "internalType": "address",
          "name": "previousOwner",
          "type": "address"
        },
        {
          "indexed": true,
          "internalType": "address",
          "name": "newOwner",
          "type": "address"
        }
      ],
      "name": "OwnershipTransferred",
      "type": "event"
    },
    {
      "anonymous": false,
      "inputs": [
        {
          "indexed": true,
          "internalType": "address",
          "name": "from",
          "type": "address"
        },
        {
          "indexed": true,
          "internalType": "address",
          "name": "to",
          "type": "address"
        },
        {
          "indexed": true,
          "internalType": "uint256",
          "name": "tokenId",
          "type": "uint256"
        }
      ],
      "name": "Transfer",
      "type": "event"
    },
    {
      "inputs": [
        {
          "internalType": "address",
          "name": "to",
          "type": "address"
        },
        {
          "internalType": "uint256",
          "name": "tokenId",
          "type": "uint256"
        }
      ],
      "name": "approve",
      "outputs": [],
      "stateMutability": "nonpayable",
      "type": "function"
    },
    {
      "inputs": [
        {
          "internalType": "address",
          "name": "owner",
          "type": "address"
        }
      ],
      "name": "balanceOf",
      "outputs": [
        {
          "internalType": "uint256",
          "name": "",
          "type": "uint256"
        }
      ],
      "stateMutability": "view",
      "type": "function",
      "constant": true
    },
    {
      "inputs": [
        {
          "internalType": "uint256",
          "name": "tokenId",
          "type": "uint256"
        }
      ],
      "name": "getApproved",
      "outputs": [
        {
          "internalType": "address",
          "name": "",
          "type": "address"
        }
      ],
      "stateMutability": "view",
      "type": "function",
      "constant": true
    },
    {
      "inputs": [
        {
          "internalType": "address",
          "name": "owner",
          "type": "address"
        },
        {
          "internalType": "address",
          "name": "operator",
          "type": "address"
        }
      ],
      "name": "isApprovedForAll",
      "outputs": [
        {
          "internalType": "bool",
          "name": "",
          "type": "bool"
        }
      ],
      "stateMutability": "view",
      "type": "function",
      "constant": true
    },
    {
      "inputs": [],
      "name": "issuer",
      "outputs": [
        {
          "internalType": "address",
          "name": "",
          "type": "address"
        }
      ],
      "stateMutability": "view",
      "type": "function",
      "constant": true
    },
    {
      "inputs": [],
      "name": "name",
      "outputs": [
        {
          "internalType": "string",
          "name": "",
          "type": "string"
        }
      ],
      "stateMutability": "view",
      "type": "function",
      "constant": true
    },
    {
      "inputs": [],
      "name": "owner",
      "outputs": [
        {
          "internalType": "address",
          "name": "",
          "type": "address"
        }
      ],
      "stateMutability": "view",
      "type": "function",
      "constant": true
    },
    {
      "inputs": [
        {
          "internalType": "uint256",
          "name": "tokenId",
          "type": "uint256"
        }
      ],
      "name": "ownerOf",
      "outputs": [
        {
          "internalType": "address",
          "name": "",
          "type": "address"
        }
      ],
      "stateMutability": "view",
      "type": "function",
      "constant": true
    },
    {
      "inputs": [],
      "name": "renounceOwnership",
      "outputs": [],
      "stateMutability": "nonpayable",
      "type": "function"
    },
    {
      "inputs": [
        {
          "internalType": "address",
          "name": "from",
          "type": "address"
        },
        {
          "internalType": "address",
          "name": "to",
          "type": "address"
        },
        {
          "internalType": "uint256",
          "name": "tokenId",
          "type": "uint256"
        }
      ],
      "name": "safeTransferFrom",
      "outputs": [],
      "stateMutability": "nonpayable",
      "type": "function"
    },
    {
      "inputs": [
        {
          "internalType": "address",
          "name": "from",
          "type": "address"
        },
        {
          "internalType": "address",
          "name": "to",
          "type": "address"
        },
        {
          "internalType": "uint256",
          "name": "tokenId",
          "type": "uint256"
        },
        {
          "internalType": "bytes",
          "name": "data",
          "type": "bytes"
        }
      ],
      "name": "safeTransferFrom",
      "outputs": [],
      "stateMutability": "nonpayable",
      "type": "function"
    },
    {
      "inputs": [
        {
          "internalType": "address",
          "name": "operator",
          "type": "address"
        },
        {
          "internalType": "bool",
          "name": "approved",
          "type": "bool"
        }
      ],
      "name": "setApprovalForAll",
      "outputs": [],
      "stateMutability": "nonpayable",
      "type": "function"
    },
    {
      "inputs": [],
      "name": "symbol",
      "outputs": [
        {
          "internalType": "string",
          "name": "",
          "type": "string"
        }
      ],
      "stateMutability": "view",
      "type": "function",
      "constant": true
    },
    {
      "inputs": [
        {
          "internalType": "uint256",
          "name": "index",
          "type": "uint256"
        }
      ],
      "name": "tokenByIndex",
      "outputs": [
        {
          "internalType": "uint256",
          "name": "",
          "type": "uint256"
        }
      ],
      "stateMutability": "view",
      "type": "function",
      "constant": true
    },
    {
      "inputs": [
        {
          "internalType": "address",
          "name": "owner",
          "type": "address"
        },
        {
          "internalType": "uint256",
          "name": "index",
          "type": "uint256"
        }
      ],
      "name": "tokenOfOwnerByIndex",
      "outputs": [
        {
          "internalType": "uint256",
          "name": "",
          "type": "uint256"
        }
      ],
      "stateMutability": "view",
      "type": "function",
      "constant": true
    },
    {
      "inputs": [
        {
          "internalType": "uint256",
          "name": "tokenId",
          "type": "uint256"
        }
      ],
      "name": "tokenURI",
      "outputs": [
        {
          "internalType": "string",
          "name": "",
          "type": "string"
        }
      ],
      "stateMutability": "view",
      "type": "function",
      "constant": true
    },
    {
      "inputs": [],
      "name": "totalSupply",
      "outputs": [
        {
          "internalType": "uint256",
          "name": "",
          "type": "uint256"
        }
      ],
      "stateMutability": "view",
      "type": "function",
      "constant": true
    },
    {
      "inputs": [
        {
          "internalType": "address",
          "name": "from",
          "type": "address"
        },
        {
          "internalType": "address",
          "name": "to",
          "type": "address"
        },
        {
          "internalType": "uint256",
          "name": "tokenId",
          "type": "uint256"
        }
      ],
      "name": "transferFrom",
      "outputs": [],
      "stateMutability": "nonpayable",
      "type": "function"
    },
    {
      "inputs": [
        {
          "internalType": "address",
          "name": "newOwner",
          "type": "address"
        }
      ],
      "name": "transferOwnership",
      "outputs": [],
      "stateMutability": "nonpayable",
      "type": "function"
    },
    {
      "inputs": [
        {
          "internalType": "address",
          "name": "_contractAddress",
          "type": "address"
        }
      ],
      "name": "_storeNewContract",
      "outputs": [],
      "stateMutability": "nonpayable",
      "type": "function"
    },
    {
      "inputs": [],
      "name": "getAllContractAddresses",
      "outputs": [
        {
          "internalType": "address[]",
          "name": "",
          "type": "address[]"
        }
      ],
      "stateMutability": "view",
      "type": "function",
      "constant": true
    },
    {
      "inputs": [
        {
          "internalType": "address",
          "name": "account",
          "type": "address"
        }
      ],
      "name": "getOwnedTokens",
      "outputs": [
        {
          "internalType": "uint256[]",
          "name": "",
          "type": "uint256[]"
        }
      ],
      "stateMutability": "view",
      "type": "function",
      "constant": true
    },
    {
      "inputs": [],
      "name": "getWarranty",
      "outputs": [
        {
          "internalType": "uint256",
          "name": "",
          "type": "uint256"
        }
      ],
      "stateMutability": "view",
      "type": "function",
      "constant": true
    },
    {
      "inputs": [],
      "name": "getEffectiveTime",
      "outputs": [
        {
          "internalType": "uint256",
          "name": "",
          "type": "uint256"
        }
      ],
      "stateMutability": "view",
      "type": "function",
      "constant": true
    },
    {
      "inputs": [],
      "name": "getProductInfo",
      "outputs": [
        {
          "internalType": "string",
          "name": "",
          "type": "string"
        },
        {
          "internalType": "string",
          "name": "",
          "type": "string"
        }
      ],
      "stateMutability": "view",
      "type": "function",
      "constant": true
    },
    {
      "inputs": [],
      "name": "getProductInfo_Customer",
      "outputs": [
        {
          "internalType": "string",
          "name": "",
          "type": "string"
        },
        {
          "internalType": "string",
          "name": "",
          "type": "string"
        }
      ],
      "stateMutability": "view",
      "type": "function",
      "constant": true
    },
    {
      "inputs": [
        {
          "internalType": "uint256",
          "name": "addWarrantyMonths",
          "type": "uint256"
        }
      ],
      "name": "updateWarranty",
      "outputs": [
        {
          "internalType": "uint256",
          "name": "newWarranty",
          "type": "uint256"
        }
      ],
      "stateMutability": "nonpayable",
      "type": "function"
    },
    {
      "inputs": [
        {
          "internalType": "bytes4",
          "name": "interfaceId",
          "type": "bytes4"
        }
      ],
      "name": "supportsInterface",
      "outputs": [
        {
          "internalType": "bool",
          "name": "",
          "type": "bool"
        }
      ],
      "stateMutability": "view",
      "type": "function",
      "constant": true
    }
  ],
  "bytecode": "0x60c06040523480156200001157600080fd5b5060405162003d7638038062003d768339818101604052810190620000379190620005cf565b836040518060400160405280600781526020017f52656365697074000000000000000000000000000000000000000000000000008152506040518060400160405280600481526020017f52435054000000000000000000000000000000000000000000000000000000008152508160009081620000b59190620008c0565b508060019081620000c79190620008c0565b505050600073ffffffffffffffffffffffffffffffffffffffff168173ffffffffffffffffffffffffffffffffffffffff16036200013f5760006040517f1e4fbdf7000000000000000000000000000000000000000000000000000000008152600401620001369190620009b8565b60405180910390fd5b62000150816200024260201b60201c565b507397f3797088bdad91bd90f4d9a84c0b914911f2ad600f60006101000a81548173ffffffffffffffffffffffffffffffffffffffff021916908373ffffffffffffffffffffffffffffffffffffffff1602179055503373ffffffffffffffffffffffffffffffffffffffff1660808173ffffffffffffffffffffffffffffffffffffffff16815250504260a0818152505082600d9081620001f39190620008c0565b5081600e9081620002059190620008c0565b5080600c81905550600b6000815480929190620002229062000a04565b919050555062000238306200030860201b60201c565b5050505062000a51565b6000600a60009054906101000a900473ffffffffffffffffffffffffffffffffffffffff16905081600a60006101000a81548173ffffffffffffffffffffffffffffffffffffffff021916908373ffffffffffffffffffffffffffffffffffffffff1602179055508173ffffffffffffffffffffffffffffffffffffffff168173ffffffffffffffffffffffffffffffffffffffff167f8be0079c531659141344cd1fd0a4f28419497f9722a3daafe3b4186f6b6457e060405160405180910390a35050565b600f60009054906101000a900473ffffffffffffffffffffffffffffffffffffffff1673ffffffffffffffffffffffffffffffffffffffff1663be083766826040518263ffffffff1660e01b8152600401620003659190620009b8565b600060405180830381600087803b1580156200038057600080fd5b505af115801562000395573d6000803e3d6000fd5b5050505050565b6000604051905090565b600080fd5b600080fd5b600073ffffffffffffffffffffffffffffffffffffffff82169050919050565b6000620003dd82620003b0565b9050919050565b620003ef81620003d0565b8114620003fb57600080fd5b50565b6000815190506200040f81620003e4565b92915050565b600080fd5b600080fd5b6000601f19601f8301169050919050565b7f4e487b7100000000000000000000000000000000000000000000000000000000600052604160045260246000fd5b6200046a826200041f565b810181811067ffffffffffffffff821117156200048c576200048b62000430565b5b80604052505050565b6000620004a16200039c565b9050620004af82826200045f565b919050565b600067ffffffffffffffff821115620004d257620004d162000430565b5b620004dd826200041f565b9050602081019050919050565b60005b838110156200050a578082015181840152602081019050620004ed565b60008484015250505050565b60006200052d6200052784620004b4565b62000495565b9050828152602081018484840111156200054c576200054b6200041a565b5b62000559848285620004ea565b509392505050565b600082601f83011262000579576200057862000415565b5b81516200058b84826020860162000516565b91505092915050565b6000819050919050565b620005a98162000594565b8114620005b557600080fd5b50565b600081519050620005c9816200059e565b92915050565b60008060008060808587031215620005ec57620005eb620003a6565b5b6000620005fc87828801620003fe565b945050602085015167ffffffffffffffff81111562000620576200061f620003ab565b5b6200062e8782880162000561565b935050604085015167ffffffffffffffff811115620006525762000651620003ab565b5b620006608782880162000561565b92505060606200067387828801620005b8565b91505092959194509250565b600081519050919050565b7f4e487b7100000000000000000000000000000000000000000000000000000000600052602260045260246000fd5b60006002820490506001821680620006d257607f821691505b602082108103620006e857620006e76200068a565b5b50919050565b60008190508160005260206000209050919050565b60006020601f8301049050919050565b600082821b905092915050565b600060088302620007527fffffffffffffffffffffffffffffffffffffffffffffffffffffffffffffffff8262000713565b6200075e868362000713565b95508019841693508086168417925050509392505050565b6000819050919050565b6000620007a16200079b620007958462000594565b62000776565b62000594565b9050919050565b6000819050919050565b620007bd8362000780565b620007d5620007cc82620007a8565b84845462000720565b825550505050565b600090565b620007ec620007dd565b620007f9818484620007b2565b505050565b5b81811015620008215762000815600082620007e2565b600181019050620007ff565b5050565b601f82111562000870576200083a81620006ee565b620008458462000703565b8101602085101562000855578190505b6200086d620008648562000703565b830182620007fe565b50505b505050565b600082821c905092915050565b6000620008956000198460080262000875565b1980831691505092915050565b6000620008b0838362000882565b9150826002028217905092915050565b620008cb826200067f565b67ffffffffffffffff811115620008e757620008e662000430565b5b620008f38254620006b9565b6200090082828562000825565b600060209050601f83116001811462000938576000841562000923578287015190505b6200092f8582620008a2565b8655506200099f565b601f1984166200094886620006ee565b60005b8281101562000972578489015182556001820191506020850194506020810190506200094b565b868310156200099257848901516200098e601f89168262000882565b8355505b6001600288020188555050505b505050505050565b620009b281620003d0565b82525050565b6000602082019050620009cf6000830184620009a7565b92915050565b7f4e487b7100000000000000000000000000000000000000000000000000000000600052601160045260246000fd5b600062000a118262000594565b91507fffffffffffffffffffffffffffffffffffffffffffffffffffffffffffffffff820362000a465762000a45620009d5565b5b600182019050919050565b60805160a0516132f162000a856000396000610cd101526000818161068a01528181610a28015261107701526132f16000f3fe608060405234801561001057600080fd5b50600436106101c45760003560e01c80636352211e116100f9578063b88d4fde11610097578063d9d6165511610071578063d9d616551461050a578063e985e9c51461053a578063f2fde38b1461056a578063fc72a38514610586576101c4565b8063b88d4fde1461049f578063ba7fcc61146104bb578063c87b56dd146104da576101c4565b80638da5cb5b116100d35780638da5cb5b1461042957806395d89b4114610447578063a22cb46514610465578063b766f02e14610481576101c4565b80636352211e146103bf57806370a08231146103ef578063715018a61461041f576101c4565b80632556f97f1161016657806342842e0e1161014057806342842e0e146103255780634549ee78146103415780634f6ccce71461035f57806355e722ef1461038f576101c4565b80632556f97f146102bb5780632f745c59146102d75780633b33b61a14610307576101c4565b8063095ea7b3116101a2578063095ea7b31461024757806318160ddd146102635780631d1438481461028157806323b872dd1461029f576101c4565b806301ffc9a7146101c957806306fdde03146101f9578063081812fc14610217575b600080fd5b6101e360048036038101906101de91906125bd565b6105a5565b6040516101f09190612605565b60405180910390f35b6102016105b7565b60405161020e91906126b0565b60405180910390f35b610231600480360381019061022c9190612708565b610649565b60405161023e9190612776565b60405180910390f35b610261600480360381019061025c91906127bd565b610665565b005b61026b61067b565b604051610278919061280c565b60405180910390f35b610289610688565b6040516102969190612776565b60405180910390f35b6102b960048036038101906102b49190612827565b6106ac565b005b6102d560048036038101906102d0919061287a565b6107ae565b005b6102f160048036038101906102ec91906127bd565b61083e565b6040516102fe919061280c565b60405180910390f35b61030f6108e7565b60405161031c9190612965565b60405180910390f35b61033f600480360381019061033a9190612827565b610984565b005b6103496109a4565b604051610356919061280c565b60405180910390f35b61037960048036038101906103749190612708565b6109ae565b604051610386919061280c565b60405180910390f35b6103a960048036038101906103a49190612708565b610a24565b6040516103b6919061280c565b60405180910390f35b6103d960048036038101906103d49190612708565b610b1b565b6040516103e69190612776565b60405180910390f35b6104096004803603810190610404919061287a565b610b2d565b604051610416919061280c565b60405180910390f35b610427610be7565b005b610431610bfb565b60405161043e9190612776565b60405180910390f35b61044f610c25565b60405161045c91906126b0565b60405180910390f35b61047f600480360381019061047a91906129b3565b610cb7565b005b610489610ccd565b604051610496919061280c565b60405180910390f35b6104b960048036038101906104b49190612b28565b610cf5565b005b6104c3610d12565b6040516104d1929190612bab565b60405180910390f35b6104f460048036038101906104ef9190612708565b610e41565b60405161050191906126b0565b60405180910390f35b610524600480360381019061051f919061287a565b610eaa565b6040516105319190612ca0565b60405180910390f35b610554600480360381019061054f9190612cc2565b610f58565b6040516105619190612605565b60405180910390f35b610584600480360381019061057f919061287a565b610fec565b005b61058e611072565b60405161059c929190612bab565b60405180910390f35b60006105b082611227565b9050919050565b6060600080546105c690612d31565b80601f01602080910402602001604051908101604052809291908181526020018280546105f290612d31565b801561063f5780601f106106145761010080835404028352916020019161063f565b820191906000526020600020905b81548152906001019060200180831161062257829003601f168201915b5050505050905090565b6000610654826112a1565b5061065e82611329565b9050919050565b6106778282610672611366565b61136e565b5050565b6000600880549050905090565b7f000000000000000000000000000000000000000000000000000000000000000081565b600073ffffffffffffffffffffffffffffffffffffffff168273ffffffffffffffffffffffffffffffffffffffff160361071e5760006040517f64a0ae920000000000000000000000000000000000000000000000000000000081526004016107159190612776565b60405180910390fd5b6000610732838361072d611366565b611380565b90508373ffffffffffffffffffffffffffffffffffffffff168173ffffffffffffffffffffffffffffffffffffffff16146107a8578382826040517f64283d7b00000000000000000000000000000000000000000000000000000000815260040161079f93929190612d62565b60405180910390fd5b50505050565b600f60009054906101000a900473ffffffffffffffffffffffffffffffffffffffff1673ffffffffffffffffffffffffffffffffffffffff1663be083766826040518263ffffffff1660e01b81526004016108099190612776565b600060405180830381600087803b15801561082357600080fd5b505af1158015610837573d6000803e3d6000fd5b5050505050565b600061084983610b2d565b821061088e5782826040517fa57d13dc000000000000000000000000000000000000000000000000000000008152600401610885929190612d99565b60405180910390fd5b600660008473ffffffffffffffffffffffffffffffffffffffff1673ffffffffffffffffffffffffffffffffffffffff168152602001908152602001600020600083815260200190815260200160002054905092915050565b6060600f60009054906101000a900473ffffffffffffffffffffffffffffffffffffffff1673ffffffffffffffffffffffffffffffffffffffff1663953874d26040518163ffffffff1660e01b8152600401600060405180830381865afa158015610956573d6000803e3d6000fd5b505050506040513d6000823e3d601f19601f8201168201806040525081019061097f9190612e9f565b905090565b61099f83838360405180602001604052806000815250610cf5565b505050565b6000600c54905090565b60006109b861067b565b82106109fe576000826040517fa57d13dc0000000000000000000000000000000000000000000000000000000081526004016109f5929190612d99565b60405180910390fd5b60088281548110610a1257610a11612ee8565b5b90600052602060002001549050919050565b60007f000000000000000000000000000000000000000000000000000000000000000073ffffffffffffffffffffffffffffffffffffffff163373ffffffffffffffffffffffffffffffffffffffff1614610ab4576040517f08c379a0000000000000000000000000000000000000000000000000000000008152600401610aab90612f89565b60405180910390fd5b6000821015610af8576040517f08c379a0000000000000000000000000000000000000000000000000000000008152600401610aef9061301b565b60405180910390fd5b81600c6000828254610b0a919061306a565b92505081905550600c549050919050565b6000610b26826112a1565b9050919050565b60008073ffffffffffffffffffffffffffffffffffffffff168273ffffffffffffffffffffffffffffffffffffffff1603610ba05760006040517f89c62b64000000000000000000000000000000000000000000000000000000008152600401610b979190612776565b60405180910390fd5b600360008373ffffffffffffffffffffffffffffffffffffffff1673ffffffffffffffffffffffffffffffffffffffff168152602001908152602001600020549050919050565b610bef611396565b610bf9600061141d565b565b6000600a60009054906101000a900473ffffffffffffffffffffffffffffffffffffffff16905090565b606060018054610c3490612d31565b80601f0160208091040260200160405190810160405280929190818152602001828054610c6090612d31565b8015610cad5780601f10610c8257610100808354040283529160200191610cad565b820191906000526020600020905b815481529060010190602001808311610c9057829003601f168201915b5050505050905090565b610cc9610cc2611366565b83836114e3565b5050565b60007f0000000000000000000000000000000000000000000000000000000000000000905090565b610d008484846106ac565b610d0c84848484611652565b50505050565b606080610d1d611396565b600d600e818054610d2d90612d31565b80601f0160208091040260200160405190810160405280929190818152602001828054610d5990612d31565b8015610da65780601f10610d7b57610100808354040283529160200191610da6565b820191906000526020600020905b815481529060010190602001808311610d8957829003601f168201915b50505050509150808054610db990612d31565b80601f0160208091040260200160405190810160405280929190818152602001828054610de590612d31565b8015610e325780601f10610e0757610100808354040283529160200191610e32565b820191906000526020600020905b815481529060010190602001808311610e1557829003601f168201915b50505050509050915091509091565b6060610e4c826112a1565b506000610e57611809565b90506000815111610e775760405180602001604052806000815250610ea2565b80610e8184611820565b604051602001610e929291906130da565b6040516020818303038152906040525b915050919050565b60606000610eb783610b2d565b905060008167ffffffffffffffff811115610ed557610ed46129fd565b5b604051908082528060200260200182016040528015610f035781602001602082028036833780820191505090505b50905060005b82811015610f4d57610f1b858261083e565b828281518110610f2e57610f2d612ee8565b5b6020026020010181815250508080610f45906130fe565b915050610f09565b508092505050919050565b6000600560008473ffffffffffffffffffffffffffffffffffffffff1673ffffffffffffffffffffffffffffffffffffffff16815260200190815260200160002060008373ffffffffffffffffffffffffffffffffffffffff1673ffffffffffffffffffffffffffffffffffffffff16815260200190815260200160002060009054906101000a900460ff16905092915050565b610ff4611396565b600073ffffffffffffffffffffffffffffffffffffffff168173ffffffffffffffffffffffffffffffffffffffff16036110665760006040517f1e4fbdf700000000000000000000000000000000000000000000000000000000815260040161105d9190612776565b60405180910390fd5b61106f8161141d565b50565b6060807f000000000000000000000000000000000000000000000000000000000000000073ffffffffffffffffffffffffffffffffffffffff163373ffffffffffffffffffffffffffffffffffffffff1614611103576040517f08c379a00000000000000000000000000000000000000000000000000000000081526004016110fa90612f89565b60405180910390fd5b600d600e81805461111390612d31565b80601f016020809104026020016040519081016040528092919081815260200182805461113f90612d31565b801561118c5780601f106111615761010080835404028352916020019161118c565b820191906000526020600020905b81548152906001019060200180831161116f57829003601f168201915b5050505050915080805461119f90612d31565b80601f01602080910402602001604051908101604052809291908181526020018280546111cb90612d31565b80156112185780601f106111ed57610100808354040283529160200191611218565b820191906000526020600020905b8154815290600101906020018083116111fb57829003601f168201915b50505050509050915091509091565b60007f780e9d63000000000000000000000000000000000000000000000000000000007bffffffffffffffffffffffffffffffffffffffffffffffffffffffff1916827bffffffffffffffffffffffffffffffffffffffffffffffffffffffff1916148061129a5750611299826118ee565b5b9050919050565b6000806112ad836119d0565b9050600073ffffffffffffffffffffffffffffffffffffffff168173ffffffffffffffffffffffffffffffffffffffff160361132057826040517f7e273289000000000000000000000000000000000000000000000000000000008152600401611317919061280c565b60405180910390fd5b80915050919050565b60006004600083815260200190815260200160002060009054906101000a900473ffffffffffffffffffffffffffffffffffffffff169050919050565b600033905090565b61137b8383836001611a0d565b505050565b600061138d848484611bd2565b90509392505050565b61139e611366565b73ffffffffffffffffffffffffffffffffffffffff166113bc610bfb565b73ffffffffffffffffffffffffffffffffffffffff161461141b576113df611366565b6040517f118cdaa70000000000000000000000000000000000000000000000000000000081526004016114129190612776565b60405180910390fd5b565b6000600a60009054906101000a900473ffffffffffffffffffffffffffffffffffffffff16905081600a60006101000a81548173ffffffffffffffffffffffffffffffffffffffff021916908373ffffffffffffffffffffffffffffffffffffffff1602179055508173ffffffffffffffffffffffffffffffffffffffff168173ffffffffffffffffffffffffffffffffffffffff167f8be0079c531659141344cd1fd0a4f28419497f9722a3daafe3b4186f6b6457e060405160405180910390a35050565b600073ffffffffffffffffffffffffffffffffffffffff168273ffffffffffffffffffffffffffffffffffffffff160361155457816040517f5b08ba1800000000000000000000000000000000000000000000000000000000815260040161154b9190612776565b60405180910390fd5b80600560008573ffffffffffffffffffffffffffffffffffffffff1673ffffffffffffffffffffffffffffffffffffffff16815260200190815260200160002060008473ffffffffffffffffffffffffffffffffffffffff1673ffffffffffffffffffffffffffffffffffffffff16815260200190815260200160002060006101000a81548160ff0219169083151502179055508173ffffffffffffffffffffffffffffffffffffffff168373ffffffffffffffffffffffffffffffffffffffff167f17307eab39ab6107e8899845ad3d59bd9653f200f220920489ca2b5937696c31836040516116459190612605565b60405180910390a3505050565b60008373ffffffffffffffffffffffffffffffffffffffff163b1115611803578273ffffffffffffffffffffffffffffffffffffffff1663150b7a02611696611366565b8685856040518563ffffffff1660e01b81526004016116b8949392919061319b565b6020604051808303816000875af19250505080156116f457506040513d601f19601f820116820180604052508101906116f191906131fc565b60015b611778573d8060008114611724576040519150601f19603f3d011682016040523d82523d6000602084013e611729565b606091505b50600081510361177057836040517f64a0ae920000000000000000000000000000000000000000000000000000000081526004016117679190612776565b60405180910390fd5b805181602001fd5b63150b7a0260e01b7bffffffffffffffffffffffffffffffffffffffffffffffffffffffff1916817bffffffffffffffffffffffffffffffffffffffffffffffffffffffff19161461180157836040517f64a0ae920000000000000000000000000000000000000000000000000000000081526004016117f89190612776565b60405180910390fd5b505b50505050565b606060405180602001604052806000815250905090565b60606000600161182f84611cef565b01905060008167ffffffffffffffff81111561184e5761184d6129fd565b5b6040519080825280601f01601f1916602001820160405280156118805781602001600182028036833780820191505090505b509050600082602001820190505b6001156118e3578080600190039150507f3031323334353637383961626364656600000000000000000000000000000000600a86061a8153600a85816118d7576118d6613229565b5b0494506000850361188e575b819350505050919050565b60007f80ac58cd000000000000000000000000000000000000000000000000000000007bffffffffffffffffffffffffffffffffffffffffffffffffffffffff1916827bffffffffffffffffffffffffffffffffffffffffffffffffffffffff191614806119b957507f5b5e139f000000000000000000000000000000000000000000000000000000007bffffffffffffffffffffffffffffffffffffffffffffffffffffffff1916827bffffffffffffffffffffffffffffffffffffffffffffffffffffffff1916145b806119c957506119c882611e42565b5b9050919050565b60006002600083815260200190815260200160002060009054906101000a900473ffffffffffffffffffffffffffffffffffffffff169050919050565b8080611a465750600073ffffffffffffffffffffffffffffffffffffffff168273ffffffffffffffffffffffffffffffffffffffff1614155b15611b7a576000611a56846112a1565b9050600073ffffffffffffffffffffffffffffffffffffffff168373ffffffffffffffffffffffffffffffffffffffff1614158015611ac157508273ffffffffffffffffffffffffffffffffffffffff168173ffffffffffffffffffffffffffffffffffffffff1614155b8015611ad45750611ad28184610f58565b155b15611b1657826040517fa9fbf51f000000000000000000000000000000000000000000000000000000008152600401611b0d9190612776565b60405180910390fd5b8115611b7857838573ffffffffffffffffffffffffffffffffffffffff168273ffffffffffffffffffffffffffffffffffffffff167f8c5be1e5ebec7d5bd14f71427d1e84f3dd0314c0f7b2291e5b200ac8c7c3b92560405160405180910390a45b505b836004600085815260200190815260200160002060006101000a81548173ffffffffffffffffffffffffffffffffffffffff021916908373ffffffffffffffffffffffffffffffffffffffff16021790555050505050565b600080611be0858585611eac565b9050600073ffffffffffffffffffffffffffffffffffffffff168173ffffffffffffffffffffffffffffffffffffffff1603611c2457611c1f846120c6565b611c63565b8473ffffffffffffffffffffffffffffffffffffffff168173ffffffffffffffffffffffffffffffffffffffff1614611c6257611c61818561210f565b5b5b600073ffffffffffffffffffffffffffffffffffffffff168573ffffffffffffffffffffffffffffffffffffffff1603611ca557611ca084612270565b611ce4565b8473ffffffffffffffffffffffffffffffffffffffff168173ffffffffffffffffffffffffffffffffffffffff1614611ce357611ce28585612341565b5b5b809150509392505050565b600080600090507a184f03e93ff9f4daa797ed6e38ed64bf6a1f0100000000000000008310611d4d577a184f03e93ff9f4daa797ed6e38ed64bf6a1f0100000000000000008381611d4357611d42613229565b5b0492506040810190505b6d04ee2d6d415b85acef81000000008310611d8a576d04ee2d6d415b85acef81000000008381611d8057611d7f613229565b5b0492506020810190505b662386f26fc100008310611db957662386f26fc100008381611daf57611dae613229565b5b0492506010810190505b6305f5e1008310611de2576305f5e1008381611dd857611dd7613229565b5b0492506008810190505b6127108310611e07576127108381611dfd57611dfc613229565b5b0492506004810190505b60648310611e2a5760648381611e2057611e1f613229565b5b0492506002810190505b600a8310611e39576001810190505b80915050919050565b60007f01ffc9a7000000000000000000000000000000000000000000000000000000007bffffffffffffffffffffffffffffffffffffffffffffffffffffffff1916827bffffffffffffffffffffffffffffffffffffffffffffffffffffffff1916149050919050565b600080611eb8846119d0565b9050600073ffffffffffffffffffffffffffffffffffffffff168373ffffffffffffffffffffffffffffffffffffffff1614611efa57611ef98184866123cc565b5b600073ffffffffffffffffffffffffffffffffffffffff168173ffffffffffffffffffffffffffffffffffffffff1614611f8b57611f3c600085600080611a0d565b6001600360008373ffffffffffffffffffffffffffffffffffffffff1673ffffffffffffffffffffffffffffffffffffffff168152602001908152602001600020600082825403925050819055505b600073ffffffffffffffffffffffffffffffffffffffff168573ffffffffffffffffffffffffffffffffffffffff161461200e576001600360008773ffffffffffffffffffffffffffffffffffffffff1673ffffffffffffffffffffffffffffffffffffffff168152602001908152602001600020600082825401925050819055505b846002600086815260200190815260200160002060006101000a81548173ffffffffffffffffffffffffffffffffffffffff021916908373ffffffffffffffffffffffffffffffffffffffff160217905550838573ffffffffffffffffffffffffffffffffffffffff168273ffffffffffffffffffffffffffffffffffffffff167fddf252ad1be2c89b69c2b068fc378daa952ba7f163c4a11628f55a4df523b3ef60405160405180910390a4809150509392505050565b6008805490506009600083815260200190815260200160002081905550600881908060018154018082558091505060019003906000526020600020016000909190919091505550565b600061211a83610b2d565b90506000600760008481526020019081526020016000205490508181146121ff576000600660008673ffffffffffffffffffffffffffffffffffffffff1673ffffffffffffffffffffffffffffffffffffffff168152602001908152602001600020600084815260200190815260200160002054905080600660008773ffffffffffffffffffffffffffffffffffffffff1673ffffffffffffffffffffffffffffffffffffffff168152602001908152602001600020600084815260200190815260200160002081905550816007600083815260200190815260200160002081905550505b6007600084815260200190815260200160002060009055600660008573ffffffffffffffffffffffffffffffffffffffff1673ffffffffffffffffffffffffffffffffffffffff16815260200190815260200160002060008381526020019081526020016000206000905550505050565b600060016008805490506122849190613258565b90506000600960008481526020019081526020016000205490506000600883815481106122b4576122b3612ee8565b5b9060005260206000200154905080600883815481106122d6576122d5612ee8565b5b9060005260206000200181905550816009600083815260200190815260200160002081905550600960008581526020019081526020016000206000905560088054806123255761232461328c565b5b6001900381819060005260206000200160009055905550505050565b6000600161234e84610b2d565b6123589190613258565b905081600660008573ffffffffffffffffffffffffffffffffffffffff1673ffffffffffffffffffffffffffffffffffffffff168152602001908152602001600020600083815260200190815260200160002081905550806007600084815260200190815260200160002081905550505050565b6123d7838383612490565b61248b57600073ffffffffffffffffffffffffffffffffffffffff168373ffffffffffffffffffffffffffffffffffffffff160361244c57806040517f7e273289000000000000000000000000000000000000000000000000000000008152600401612443919061280c565b60405180910390fd5b81816040517f177e802f000000000000000000000000000000000000000000000000000000008152600401612482929190612d99565b60405180910390fd5b505050565b60008073ffffffffffffffffffffffffffffffffffffffff168373ffffffffffffffffffffffffffffffffffffffff161415801561254857508273ffffffffffffffffffffffffffffffffffffffff168473ffffffffffffffffffffffffffffffffffffffff16148061250957506125088484610f58565b5b8061254757508273ffffffffffffffffffffffffffffffffffffffff1661252f83611329565b73ffffffffffffffffffffffffffffffffffffffff16145b5b90509392505050565b6000604051905090565b600080fd5b600080fd5b60007fffffffff0000000000000000000000000000000000000000000000000000000082169050919050565b61259a81612565565b81146125a557600080fd5b50565b6000813590506125b781612591565b92915050565b6000602082840312156125d3576125d261255b565b5b60006125e1848285016125a8565b91505092915050565b60008115159050919050565b6125ff816125ea565b82525050565b600060208201905061261a60008301846125f6565b92915050565b600081519050919050565b600082825260208201905092915050565b60005b8381101561265a57808201518184015260208101905061263f565b60008484015250505050565b6000601f19601f8301169050919050565b600061268282612620565b61268c818561262b565b935061269c81856020860161263c565b6126a581612666565b840191505092915050565b600060208201905081810360008301526126ca8184612677565b905092915050565b6000819050919050565b6126e5816126d2565b81146126f057600080fd5b50565b600081359050612702816126dc565b92915050565b60006020828403121561271e5761271d61255b565b5b600061272c848285016126f3565b91505092915050565b600073ffffffffffffffffffffffffffffffffffffffff82169050919050565b600061276082612735565b9050919050565b61277081612755565b82525050565b600060208201905061278b6000830184612767565b92915050565b61279a81612755565b81146127a557600080fd5b50565b6000813590506127b781612791565b92915050565b600080604083850312156127d4576127d361255b565b5b60006127e2858286016127a8565b92505060206127f3858286016126f3565b9150509250929050565b612806816126d2565b82525050565b600060208201905061282160008301846127fd565b92915050565b6000806000606084860312156128405761283f61255b565b5b600061284e868287016127a8565b935050602061285f868287016127a8565b9250506040612870868287016126f3565b9150509250925092565b6000602082840312156128905761288f61255b565b5b600061289e848285016127a8565b91505092915050565b600081519050919050565b600082825260208201905092915050565b6000819050602082019050919050565b6128dc81612755565b82525050565b60006128ee83836128d3565b60208301905092915050565b6000602082019050919050565b6000612912826128a7565b61291c81856128b2565b9350612927836128c3565b8060005b8381101561295857815161293f88826128e2565b975061294a836128fa565b92505060018101905061292b565b5085935050505092915050565b6000602082019050818103600083015261297f8184612907565b905092915050565b612990816125ea565b811461299b57600080fd5b50565b6000813590506129ad81612987565b92915050565b600080604083850312156129ca576129c961255b565b5b60006129d8858286016127a8565b92505060206129e98582860161299e565b9150509250929050565b600080fd5b600080fd5b7f4e487b7100000000000000000000000000000000000000000000000000000000600052604160045260246000fd5b612a3582612666565b810181811067ffffffffffffffff82111715612a5457612a536129fd565b5b80604052505050565b6000612a67612551565b9050612a738282612a2c565b919050565b600067ffffffffffffffff821115612a9357612a926129fd565b5b612a9c82612666565b9050602081019050919050565b82818337600083830152505050565b6000612acb612ac684612a78565b612a5d565b905082815260208101848484011115612ae757612ae66129f8565b5b612af2848285612aa9565b509392505050565b600082601f830112612b0f57612b0e6129f3565b5b8135612b1f848260208601612ab8565b91505092915050565b60008060008060808587031215612b4257612b4161255b565b5b6000612b50878288016127a8565b9450506020612b61878288016127a8565b9350506040612b72878288016126f3565b925050606085013567ffffffffffffffff811115612b9357612b92612560565b5b612b9f87828801612afa565b91505092959194509250565b60006040820190508181036000830152612bc58185612677565b90508181036020830152612bd98184612677565b90509392505050565b600081519050919050565b600082825260208201905092915050565b6000819050602082019050919050565b612c17816126d2565b82525050565b6000612c298383612c0e565b60208301905092915050565b6000602082019050919050565b6000612c4d82612be2565b612c578185612bed565b9350612c6283612bfe565b8060005b83811015612c93578151612c7a8882612c1d565b9750612c8583612c35565b925050600181019050612c66565b5085935050505092915050565b60006020820190508181036000830152612cba8184612c42565b905092915050565b60008060408385031215612cd957612cd861255b565b5b6000612ce7858286016127a8565b9250506020612cf8858286016127a8565b9150509250929050565b7f4e487b7100000000000000000000000000000000000000000000000000000000600052602260045260246000fd5b60006002820490506001821680612d4957607f821691505b602082108103612d5c57612d5b612d02565b5b50919050565b6000606082019050612d776000830186612767565b612d8460208301856127fd565b612d916040830184612767565b949350505050565b6000604082019050612dae6000830185612767565b612dbb60208301846127fd565b9392505050565b600067ffffffffffffffff821115612ddd57612ddc6129fd565b5b602082029050602081019050919050565b600080fd5b600081519050612e0281612791565b92915050565b6000612e1b612e1684612dc2565b612a5d565b90508083825260208201905060208402830185811115612e3e57612e3d612dee565b5b835b81811015612e675780612e538882612df3565b845260208401935050602081019050612e40565b5050509392505050565b600082601f830112612e8657612e856129f3565b5b8151612e96848260208601612e08565b91505092915050565b600060208284031215612eb557612eb461255b565b5b600082015167ffffffffffffffff811115612ed357612ed2612560565b5b612edf84828501612e71565b91505092915050565b7f4e487b7100000000000000000000000000000000000000000000000000000000600052603260045260246000fd5b7f4f6e6c7920746865206d696e7465722063616e2063616c6c207468697320667560008201527f6e6374696f6e2e00000000000000000000000000000000000000000000000000602082015250565b6000612f7360278361262b565b9150612f7e82612f17565b604082019050919050565b60006020820190508181036000830152612fa281612f66565b9050919050565b7f5468652061646465642077617272616e7479206d6f6e7468732073686f756c6460008201527f206265206120706f7369746976652076616c7565000000000000000000000000602082015250565b600061300560348361262b565b915061301082612fa9565b604082019050919050565b6000602082019050818103600083015261303481612ff8565b9050919050565b7f4e487b7100000000000000000000000000000000000000000000000000000000600052601160045260246000fd5b6000613075826126d2565b9150613080836126d2565b92508282019050808211156130985761309761303b565b5b92915050565b600081905092915050565b60006130b482612620565b6130be818561309e565b93506130ce81856020860161263c565b80840191505092915050565b60006130e682856130a9565b91506130f282846130a9565b91508190509392505050565b6000613109826126d2565b91507fffffffffffffffffffffffffffffffffffffffffffffffffffffffffffffffff820361313b5761313a61303b565b5b600182019050919050565b600081519050919050565b600082825260208201905092915050565b600061316d82613146565b6131778185613151565b935061318781856020860161263c565b61319081612666565b840191505092915050565b60006080820190506131b06000830187612767565b6131bd6020830186612767565b6131ca60408301856127fd565b81810360608301526131dc8184613162565b905095945050505050565b6000815190506131f681612591565b92915050565b6000602082840312156132125761321161255b565b5b6000613220848285016131e7565b91505092915050565b7f4e487b7100000000000000000000000000000000000000000000000000000000600052601260045260246000fd5b6000613263826126d2565b915061326e836126d2565b92508282039050818111156132865761328561303b565b5b92915050565b7f4e487b7100000000000000000000000000000000000000000000000000000000600052603160045260246000fdfea2646970667358221220a4c186ea0a979869fe3cce7a2b0daf087867a373597ee291947cac7612aa34e364736f6c63430008130033",
  "immutableReferences": {
    "3469": [
      {
        "length": 32,
        "start": 1674
      },
      {
        "length": 32,
        "start": 2600
      },
      {
        "length": 32,
        "start": 4215
      }
    ],
    "3473": [
      {
        "length": 32,
        "start": 3281
      }
    ]
  },
  "source": "// SPDX-License-Identifier: MIT\r\npragma solidity ^0.8.19;\r\n\r\nimport \"@openzeppelin/contracts/token/ERC721/ERC721.sol\";\r\nimport \"@openzeppelin/contracts/token/ERC721/extensions/ERC721Enumerable.sol\";\r\nimport \"@openzeppelin/contracts/access/Ownable.sol\";\r\nimport \"./StorageContract.sol\";\r\ncontract Receipt is ERC721, ERC721Enumerable, Ownable {\r\n    uint256 private _nextTokenId;\r\n    address public immutable issuer;\r\n    uint256 private warranty;\r\n    uint256 private immutable effectiveTime;\r\n    string private productName;\r\n    string private productIdentifier;\r\n    StorageContract private storageContract;\r\n    constructor(address initialOwner,string memory _productName,\r\n        string memory _productIdentifier,\r\n        uint256 _warrantyDates)\r\n        ERC721(\"Receipt\", \"RCPT\")\r\n        Ownable(initialOwner)\r\n    {\r\n        // stored the list of contracts is a storage on blockchain\r\n        storageContract = StorageContract(0x97f3797088BDad91Bd90F4D9a84C0b914911f2aD);\r\n        //_safeMint(initialOwner, _nextTokenId);\r\n        issuer = msg.sender;\r\n        effectiveTime = block.timestamp;\r\n        //effectiveTime = 0;\r\n        productName = _productName;\r\n        productIdentifier = _productIdentifier;\r\n        warranty = _warrantyDates;\r\n        _nextTokenId++;\r\n        _storeNewContract(address(this));\r\n    }\r\n    function _storeNewContract(address _contractAddress) public {\r\n        storageContract.storeContractAddress(_contractAddress);\r\n    }\r\n\r\n    function getAllContractAddresses() public view returns (address[] memory) {\r\n        return storageContract.getContractAddresses();\r\n    }\r\n    modifier onlyIssuer() {\r\n        require(\r\n            msg.sender == issuer,\r\n            \"Only the minter can call this function.\"\r\n        );\r\n        _;\r\n    }\r\n    function getOwnedTokens(address account) public view returns (uint256[] memory) {\r\n        uint256 tokenCount = balanceOf(account);\r\n        uint256[] memory tokenIds = new uint256[](tokenCount);\r\n\r\n        for (uint256 i = 0; i < tokenCount; i++) {\r\n            tokenIds[i] = tokenOfOwnerByIndex(account, i);\r\n        }\r\n\r\n        return tokenIds;\r\n    }\r\n    function getWarranty() external view returns (uint256) {\r\n        return warranty;\r\n    }\r\n    function getEffectiveTime() external view returns (uint256) {\r\n        return effectiveTime;\r\n    }\r\n    function getProductInfo() public onlyIssuer view returns (string memory, string memory){\r\n        return (productName, productIdentifier);\r\n    }\r\n    function getProductInfo_Customer() public onlyOwner view returns (string memory, string memory){\r\n        return (productName, productIdentifier);\r\n    }\r\n    function updateWarranty(uint256 addWarrantyMonths) public onlyIssuer returns(uint256 newWarranty){\r\n        require(\r\n            addWarrantyMonths >=0,\r\n            \"The added warranty months should be a positive value\"\r\n        );\r\n        warranty += addWarrantyMonths;\r\n        newWarranty = warranty;\r\n    }\r\n    function _update(address to, uint256 tokenId, address auth)\r\n        internal\r\n        override(ERC721, ERC721Enumerable)\r\n        returns (address)\r\n    {\r\n        return super._update(to, tokenId, auth);\r\n    }\r\n\r\n    function _increaseBalance(address account, uint128 value)\r\n        internal\r\n        override(ERC721, ERC721Enumerable)\r\n    {\r\n        super._increaseBalance(account, value);\r\n    }\r\n\r\n    function supportsInterface(bytes4 interfaceId)\r\n        public\r\n        view\r\n        override(ERC721, ERC721Enumerable)\r\n        returns (bool)\r\n    {\r\n        return super.supportsInterface(interfaceId);\r\n    }\r\n}\r\n",
  "sourcePath": "D:\\Documents\\GitHub\\Paper\\contracts\\Receipt.sol",
  "compiler": {
    "name": "solc",
    "version": "0.8.19+commit.7dd6d404.Emscripten.clang"
  },
  "schemaVersion": "3.4.16",
  "updatedAt": "2023-12-27T05:02:18.562Z",
  "networkType": "ethereum",
  "devdoc": {
    "errors": {
      "ERC721EnumerableForbiddenBatchMint()": [
        {
          "details": "Batch mint is not allowed."
        }
      ],
      "ERC721IncorrectOwner(address,uint256,address)": [
        {
          "details": "Indicates an error related to the ownership over a particular token. Used in transfers.",
          "params": {
            "owner": "Address of the current owner of a token.",
            "sender": "Address whose tokens are being transferred.",
            "tokenId": "Identifier number of a token."
          }
        }
      ],
      "ERC721InsufficientApproval(address,uint256)": [
        {
          "details": "Indicates a failure with the `operator`s approval. Used in transfers.",
          "params": {
            "operator": "Address that may be allowed to operate on tokens without being their owner.",
            "tokenId": "Identifier number of a token."
          }
        }
      ],
      "ERC721InvalidApprover(address)": [
        {
          "details": "Indicates a failure with the `approver` of a token to be approved. Used in approvals.",
          "params": {
            "approver": "Address initiating an approval operation."
          }
        }
      ],
      "ERC721InvalidOperator(address)": [
        {
          "details": "Indicates a failure with the `operator` to be approved. Used in approvals.",
          "params": {
            "operator": "Address that may be allowed to operate on tokens without being their owner."
          }
        }
      ],
      "ERC721InvalidOwner(address)": [
        {
          "details": "Indicates that an address can't be an owner. For example, `address(0)` is a forbidden owner in EIP-20. Used in balance queries.",
          "params": {
            "owner": "Address of the current owner of a token."
          }
        }
      ],
      "ERC721InvalidReceiver(address)": [
        {
          "details": "Indicates a failure with the token `receiver`. Used in transfers.",
          "params": {
            "receiver": "Address to which tokens are being transferred."
          }
        }
      ],
      "ERC721InvalidSender(address)": [
        {
          "details": "Indicates a failure with the token `sender`. Used in transfers.",
          "params": {
            "sender": "Address whose tokens are being transferred."
          }
        }
      ],
      "ERC721NonexistentToken(uint256)": [
        {
          "details": "Indicates a `tokenId` whose `owner` is the zero address.",
          "params": {
            "tokenId": "Identifier number of a token."
          }
        }
      ],
      "ERC721OutOfBoundsIndex(address,uint256)": [
        {
          "details": "An `owner`'s token query was out of bounds for `index`. NOTE: The owner being `address(0)` indicates a global out of bounds index."
        }
      ],
      "OwnableInvalidOwner(address)": [
        {
          "details": "The owner is not a valid owner account. (eg. `address(0)`)"
        }
      ],
      "OwnableUnauthorizedAccount(address)": [
        {
          "details": "The caller account is not authorized to perform an operation."
        }
      ]
    },
    "events": {
      "Approval(address,address,uint256)": {
        "details": "Emitted when `owner` enables `approved` to manage the `tokenId` token."
      },
      "ApprovalForAll(address,address,bool)": {
        "details": "Emitted when `owner` enables or disables (`approved`) `operator` to manage all of its assets."
      },
      "Transfer(address,address,uint256)": {
        "details": "Emitted when `tokenId` token is transferred from `from` to `to`."
      }
    },
    "kind": "dev",
    "methods": {
      "approve(address,uint256)": {
        "details": "See {IERC721-approve}."
      },
      "balanceOf(address)": {
        "details": "See {IERC721-balanceOf}."
      },
      "getApproved(uint256)": {
        "details": "See {IERC721-getApproved}."
      },
      "isApprovedForAll(address,address)": {
        "details": "See {IERC721-isApprovedForAll}."
      },
      "name()": {
        "details": "See {IERC721Metadata-name}."
      },
      "owner()": {
        "details": "Returns the address of the current owner."
      },
      "ownerOf(uint256)": {
        "details": "See {IERC721-ownerOf}."
      },
      "renounceOwnership()": {
        "details": "Leaves the contract without owner. It will not be possible to call `onlyOwner` functions. Can only be called by the current owner. NOTE: Renouncing ownership will leave the contract without an owner, thereby disabling any functionality that is only available to the owner."
      },
      "safeTransferFrom(address,address,uint256)": {
        "details": "See {IERC721-safeTransferFrom}."
      },
      "safeTransferFrom(address,address,uint256,bytes)": {
        "details": "See {IERC721-safeTransferFrom}."
      },
      "setApprovalForAll(address,bool)": {
        "details": "See {IERC721-setApprovalForAll}."
      },
      "symbol()": {
        "details": "See {IERC721Metadata-symbol}."
      },
      "tokenByIndex(uint256)": {
        "details": "See {IERC721Enumerable-tokenByIndex}."
      },
      "tokenOfOwnerByIndex(address,uint256)": {
        "details": "See {IERC721Enumerable-tokenOfOwnerByIndex}."
      },
      "tokenURI(uint256)": {
        "details": "See {IERC721Metadata-tokenURI}."
      },
      "totalSupply()": {
        "details": "See {IERC721Enumerable-totalSupply}."
      },
      "transferFrom(address,address,uint256)": {
        "details": "See {IERC721-transferFrom}."
      },
      "transferOwnership(address)": {
        "details": "Transfers ownership of the contract to a new account (`newOwner`). Can only be called by the current owner."
      }
    },
    "version": 1
  },
  "userdoc": {
    "kind": "user",
    "methods": {},
    "version": 1
  }
}